:100000000C9462000C948A000C948A000C948A0070
:100010000C948A000C948A000C948A000C948A0038
:100020000C948A000C948A000C948A000C948A0028
:100030000C948A000C948A000C948A000C948A0018
:100040000C9446020C948A000C9451010C94830188
:100050000C948A000C948A000C948A000C948A00F8
:100060000C948A000C948A00000000080002010031
:100070000003040700000000000000000102040863
:100080001020408001020408102001020408102002
:10009000040404040404040402020202020203032E
:1000A00003030303000000002300260029000000D2
:1000B0000000250028002B0000000000240027007D
:1000C0002A00B30111241FBECFEFD4E0DEBFCDBFA5
:1000D00011E0A0E0B1E0EEE9F9E002C005900D9278
:1000E000A836B107D9F722E0A8E6B1E001C01D9219
:1000F000A431B207E1F710E0C4ECD0E004C02297CD
:10010000FE010E94C904C23CD107C9F70E94370210
:100110000C94CD040C9400000F931F93CF93DF93A6
:1001200061E080910E010E944B030CE011E061E060
:10013000F80180810E944B03CAE0D1E061E0888130
:100140000E944B0360E0F80180810E94840360E01C
:1001500088810E9484030E94900260936A017093D8
:100160006B0180936C0190936D01DF91CF911F9192
:100170000F9108950F931F93CF93DF9380910E01FA
:100180000E94BA03EC018130910509F062C08091B0
:10019000680190916901892B09F07CC00E9490024E
:1001A00000916A0110916B0120916C0130916D01F9
:1001B000601B710B820B930B0091040110910501E0
:1001C0002091060130910701061717072807390704
:1001D00008F060C063E271E08EE691E00E943402B4
:1001E00060E080910A010E94840361E080910C012B
:1001F0000E9484032091020130910301809100014B
:1002000090910101289FB001299F700D389F700DBA
:100210001124882777FD8095982F0E94BF0260E007
:1002200080910C010E94840361E080910A010E9488
:1002300084036091080170910901882777FD8095FA
:10024000982F0E94BF0260E080910A010E948403FF
:1002500018C00097B1F480916801909169010197ED
:1002600081F460E171E08EE691E00E9434020E9428
:10027000900260936A0170936B0180936C0190937C
:100280006D01D0936901C0936801DF91CF911F91F7
:100290000F91089565E371E08EE691E00E943402CB
:1002A000F0CF1F920F920FB60F9211242F938F93BE
:1002B0009F93EF93FF93E0917E01F0917F01808106
:1002C000E0918401F091850182FD12C090818091BE
:1002D00087018F5F8F7320918801821751F0E09121
:1002E0008701F0E0E259FE4F958F8093870101C0AE
:1002F0008081FF91EF919F918F912F910F900FBE71
:100300000F901F9018951F920F920FB60F92112405
:100310002F933F934F935F936F937F938F939F930D
:10032000AF93BF93EF93FF938EE691E00E941E047C
:10033000FF91EF91BF91AF919F918F917F916F91BD
:100340005F914F913F912F910F900FBE0F901F9093
:1003500018958EE691E00E94E30321E0892B09F4D1
:1003600020E0822F0895109271011092700188EEA2
:1003700093E0A0E0B0E08093720190937301A093AA
:100380007401B09375018BE591E090936F018093B8
:100390006E0185EC90E090937B0180937A0184EC70
:1003A00090E090937D0180937C0180EC90E09093AD
:1003B0007F0180937E0181EC90E090938101809396
:1003C000800182EC90E0909383018093820186EC1F
:1003D00090E09093850180938401109287011092A0
:1003E00088011092890110928A010895CF92DF92BC
:1003F000EF92FF920F931F93CF93DF936C017A01DB
:10040000EB01E60EF71E00E010E0CE15DF0561F00F
:100410006991D601ED91FC910190F081E02DC6012A
:100420000995080F191FF1CFC801DF91CF911F91D6
:100430000F91FF90EF90DF90CF90089561157105B7
:1004400081F0DB010D900020E9F7AD014150510929
:10045000461B570BDC01ED91FC910280F381E02DEE
:10046000099480E090E008950C941E0208950E9483
:10047000E7020E9436020E948C00C0E1D4E00E9494
:10048000BA002097E1F30E941004F9CF1F920F9257
:100490000FB60F9211242F933F938F939F93AF9397
:1004A000BF9380910C0290910D02A0910E02B09129
:1004B0000F0230910B0223E0230F2D3720F4019619
:1004C000A11DB11D05C026E8230F0296A11DB11D77
:1004D00020930B0280930C0290930D02A0930E02C6
:1004E000B0930F028091100290911102A09112021C
:1004F000B09113020196A11DB11D8093100290933B
:100500001102A0931202B0931302BF91AF919F9179
:100510008F913F912F910F900FBE0F901F901895C4
:100520002FB7F89460910C0270910D0280910E0229
:1005300090910F022FBF08953FB7F8948091100259
:1005400090911102A0911202B091130226B5A89BBE
:1005500005C02F3F19F00196A11DB11D3FBF6627B1
:10056000782F892F9A2F620F711D811D911D42E0F6
:10057000660F771F881F991F4A95D1F70895CF926C
:10058000DF92EF92FF92CF93DF936B017C010E9489
:100590009C02EB01C114D104E104F10489F00E9432
:1005A000C6040E949C026C1B7D0B683E734090F356
:1005B00081E0C81AD108E108F108C851DC4FEACF40
:1005C000DF91CF91FF90EF90DF90CF9008957894D6
:1005D00084B5826084BD84B5816084BD85B5826048
:1005E00085BD85B5816085BDEEE6F0E080818160E6
:1005F0008083E1E8F0E010828081826080838081E6
:1006000081608083E0E8F0E0808181608083E1EBBD
:10061000F0E0808184608083E0EBF0E080818160A5
:100620008083EAE7F0E0808184608083808182605B
:100630008083808181608083808180688083109244
:10064000C1000895833081F028F4813099F0823020
:10065000A1F008958730A9F08830B9F08430D1F442
:10066000809180008F7D03C0809180008F77809380
:100670008000089584B58F7702C084B58F7D84BDD6
:1006800008958091B0008F7703C08091B0008F7D76
:100690008093B0000895CF93DF9390E0FC01E4587D
:1006A000FF4F2491FC01E057FF4F8491882349F1CB
:1006B00090E0880F991FFC01E854FF4FA591B49179
:1006C00082559F4FFC01C591D4919FB7611108C01D
:1006D000F8948C91209582238C93888182230AC080
:1006E000623051F4F8948C91322F309583238C939F
:1006F0008881822B888304C0F8948C91822B8C9300
:100700009FBFDF91CF9108950F931F93CF93DF93F6
:100710001F92CDB7DEB7282F30E0F901E859FF4F1F
:100720008491F901E458FF4F1491F901E057FF4F0C
:1007300004910023C9F0882321F069830E942203D9
:100740006981E02FF0E0EE0FFF1FE255FF4FA5910A
:10075000B4919FB7F8948C91611103C010958123D7
:1007600001C0812B8C939FBF0F90DF91CF911F9180
:100770000F910895CF93DF93282F30E0F901E859C6
:10078000FF4F8491F901E458FF4FD491F901E057EC
:10079000FF4FC491CC2391F081110E942203EC2FD2
:1007A000F0E0EE0FFF1FEC55FF4FA591B4912C9197
:1007B0002D2381E090E021F480E002C080E090E011
:1007C000DF91CF910895FC01818D228D90E0805CB6
:1007D0009F4F821B91098F7399270895FC01918D7A
:1007E000828D981731F0828DE80FF11D858D90E094
:1007F00008958FEF9FEF0895FC01918D828D9817DA
:1008000061F0828DDF01A80FB11D5D968C91928DF4
:100810009F5F9F73928F90E008958FEF9FEF0895F1
:1008200089EA91E0892B49F080E090E0892B29F05A
:100830000E94A90181110C9400000895FC01848D8F
:10084000DF01A80FB11DA35ABF4F2C91848D90E0FA
:1008500001968F739927848FA689B7892C93A089D5
:10086000B1898C9180648C93938D848D981306C08C
:100870000288F389E02D80818F7D80830895CF9356
:10088000DF93EC01888D8823C9F0EA89FB89808198
:1008900085FD05C0A889B9898C9186FD0FC00FB66A
:1008A00007FCF5CF808185FFF2CFA889B9898C91AB
:1008B00085FFEDCFCE010E941E04E7CFDF91CF91DF
:1008C0000895CF92DF92FF920F931F93CF93DF9300
:1008D0001F92CDB7DEB76C0181E0D60158968C939C
:1008E00058975B969C915B975C968C915C9798135C
:1008F00007C05096ED91FC915197808185FD2EC0E7
:10090000F601038D10E00F5F1F4F0F731127F02EBC
:10091000F601848DF81211C00FB607FCF9CFD6018D
:100920005096ED91FC915197808185FFF1CFC601E2
:1009300069830E941E046981EBCF838DE80FF11D4E
:10094000E35AFF4F6083D6015B960C935B975296F8
:10095000ED91FC915397808180620CC0D601569630
:10096000ED91FC91579760835096ED91FC915197D2
:1009700080818064808381E090E00F90DF91CF914F
:100980001F910F91FF90DF90CF9008950895EE0F83
:0E099000FF1F0590F491E02D0994F894FFCF1D
:10099E0001002C01F401000064000E000D000400A3
:1009AE00202D20427574746F6E2072656C656173B4
:1009BE00656400202D20427574746F6E2070726510
:1009CE007373656400202D20427574746F6E2064FD
:1009DE0065626F756E6365202D2077616974206C7A
:1009EE006F6E6765722100000000006104F601E37E
:0809FE0003FC03EE033F0400BB
:00000001FF
